{
  "contractName": "StakeToken",
  "abi": [
    {
      "inputs": [
        {
          "internalType": "contract IERC20",
          "name": "_token",
          "type": "address"
        }
      ],
      "stateMutability": "nonpayable",
      "type": "constructor"
    },
    {
      "anonymous": false,
      "inputs": [
        {
          "indexed": true,
          "internalType": "address",
          "name": "previousOwner",
          "type": "address"
        },
        {
          "indexed": true,
          "internalType": "address",
          "name": "newOwner",
          "type": "address"
        }
      ],
      "name": "OwnershipTransferred",
      "type": "event"
    },
    {
      "anonymous": false,
      "inputs": [
        {
          "indexed": true,
          "internalType": "address",
          "name": "staker",
          "type": "address"
        },
        {
          "indexed": false,
          "internalType": "bytes32",
          "name": "stakeId",
          "type": "bytes32"
        },
        {
          "indexed": false,
          "internalType": "uint256",
          "name": "amount",
          "type": "uint256"
        },
        {
          "indexed": false,
          "internalType": "uint256",
          "name": "endsAt",
          "type": "uint256"
        }
      ],
      "name": "Staked",
      "type": "event"
    },
    {
      "anonymous": false,
      "inputs": [
        {
          "indexed": true,
          "internalType": "address",
          "name": "staker",
          "type": "address"
        },
        {
          "indexed": false,
          "internalType": "bytes32",
          "name": "stakeId",
          "type": "bytes32"
        },
        {
          "indexed": false,
          "internalType": "uint256",
          "name": "amount",
          "type": "uint256"
        }
      ],
      "name": "Unstaked",
      "type": "event"
    },
    {
      "inputs": [],
      "name": "currentlyStaked",
      "outputs": [
        {
          "internalType": "uint256",
          "name": "",
          "type": "uint256"
        }
      ],
      "stateMutability": "view",
      "type": "function",
      "constant": true
    },
    {
      "inputs": [],
      "name": "initialized",
      "outputs": [
        {
          "internalType": "bool",
          "name": "",
          "type": "bool"
        }
      ],
      "stateMutability": "view",
      "type": "function",
      "constant": true
    },
    {
      "inputs": [],
      "name": "minimumStakingAmount",
      "outputs": [
        {
          "internalType": "uint256",
          "name": "",
          "type": "uint256"
        }
      ],
      "stateMutability": "view",
      "type": "function",
      "constant": true
    },
    {
      "inputs": [],
      "name": "owner",
      "outputs": [
        {
          "internalType": "address",
          "name": "",
          "type": "address"
        }
      ],
      "stateMutability": "view",
      "type": "function",
      "constant": true
    },
    {
      "inputs": [],
      "name": "renounceOwnership",
      "outputs": [],
      "stateMutability": "nonpayable",
      "type": "function"
    },
    {
      "inputs": [],
      "name": "rewardsWallet",
      "outputs": [
        {
          "internalType": "address",
          "name": "",
          "type": "address"
        }
      ],
      "stateMutability": "view",
      "type": "function",
      "constant": true
    },
    {
      "inputs": [
        {
          "internalType": "bytes32",
          "name": "",
          "type": "bytes32"
        }
      ],
      "name": "stakes",
      "outputs": [
        {
          "internalType": "address",
          "name": "owner",
          "type": "address"
        },
        {
          "internalType": "uint256",
          "name": "amount",
          "type": "uint256"
        },
        {
          "internalType": "uint256",
          "name": "time",
          "type": "uint256"
        },
        {
          "internalType": "uint256",
          "name": "endsAt",
          "type": "uint256"
        },
        {
          "internalType": "uint256",
          "name": "dailyReward",
          "type": "uint256"
        },
        {
          "internalType": "uint256",
          "name": "daysToReward",
          "type": "uint256"
        },
        {
          "internalType": "uint256",
          "name": "lastRewardClaimAt",
          "type": "uint256"
        }
      ],
      "stateMutability": "view",
      "type": "function",
      "constant": true
    },
    {
      "inputs": [],
      "name": "stakesWallet",
      "outputs": [
        {
          "internalType": "address",
          "name": "",
          "type": "address"
        }
      ],
      "stateMutability": "view",
      "type": "function",
      "constant": true
    },
    {
      "inputs": [],
      "name": "token",
      "outputs": [
        {
          "internalType": "contract IERC20",
          "name": "",
          "type": "address"
        }
      ],
      "stateMutability": "view",
      "type": "function",
      "constant": true
    },
    {
      "inputs": [],
      "name": "tokenRewards",
      "outputs": [
        {
          "internalType": "uint256",
          "name": "oneMonth",
          "type": "uint256"
        },
        {
          "internalType": "uint256",
          "name": "threeMonth",
          "type": "uint256"
        },
        {
          "internalType": "uint256",
          "name": "sixMonth",
          "type": "uint256"
        },
        {
          "internalType": "uint256",
          "name": "oneYear",
          "type": "uint256"
        }
      ],
      "stateMutability": "view",
      "type": "function",
      "constant": true
    },
    {
      "inputs": [],
      "name": "totalStaked",
      "outputs": [
        {
          "internalType": "uint256",
          "name": "",
          "type": "uint256"
        }
      ],
      "stateMutability": "view",
      "type": "function",
      "constant": true
    },
    {
      "inputs": [
        {
          "internalType": "address",
          "name": "",
          "type": "address"
        }
      ],
      "name": "totalUserStakes",
      "outputs": [
        {
          "internalType": "uint256",
          "name": "",
          "type": "uint256"
        }
      ],
      "stateMutability": "view",
      "type": "function",
      "constant": true
    },
    {
      "inputs": [
        {
          "internalType": "address",
          "name": "newOwner",
          "type": "address"
        }
      ],
      "name": "transferOwnership",
      "outputs": [],
      "stateMutability": "nonpayable",
      "type": "function"
    },
    {
      "inputs": [
        {
          "internalType": "address",
          "name": "",
          "type": "address"
        },
        {
          "internalType": "uint256",
          "name": "",
          "type": "uint256"
        }
      ],
      "name": "userStakes",
      "outputs": [
        {
          "internalType": "bytes32",
          "name": "",
          "type": "bytes32"
        }
      ],
      "stateMutability": "view",
      "type": "function",
      "constant": true
    },
    {
      "inputs": [
        {
          "internalType": "address",
          "name": "newWallet",
          "type": "address"
        }
      ],
      "name": "setRewardsWallet",
      "outputs": [],
      "stateMutability": "nonpayable",
      "type": "function"
    },
    {
      "inputs": [
        {
          "internalType": "address",
          "name": "newWallet",
          "type": "address"
        }
      ],
      "name": "setStakesWallet",
      "outputs": [],
      "stateMutability": "nonpayable",
      "type": "function"
    },
    {
      "inputs": [
        {
          "internalType": "uint256",
          "name": "_amount",
          "type": "uint256"
        },
        {
          "internalType": "uint256",
          "name": "_oneMonth",
          "type": "uint256"
        },
        {
          "internalType": "uint256",
          "name": "_threeMonth",
          "type": "uint256"
        },
        {
          "internalType": "uint256",
          "name": "_sixMonth",
          "type": "uint256"
        },
        {
          "internalType": "uint256",
          "name": "_oneYear",
          "type": "uint256"
        },
        {
          "internalType": "uint256",
          "name": "_oneMonthTime",
          "type": "uint256"
        }
      ],
      "name": "initializeStakingContract",
      "outputs": [],
      "stateMutability": "nonpayable",
      "type": "function"
    },
    {
      "inputs": [
        {
          "internalType": "uint256",
          "name": "_oneMonth",
          "type": "uint256"
        }
      ],
      "name": "changeTimeLimits",
      "outputs": [],
      "stateMutability": "nonpayable",
      "type": "function"
    },
    {
      "inputs": [
        {
          "internalType": "uint256",
          "name": "_oneMonth",
          "type": "uint256"
        },
        {
          "internalType": "uint256",
          "name": "_threeMonth",
          "type": "uint256"
        },
        {
          "internalType": "uint256",
          "name": "_sixMonth",
          "type": "uint256"
        },
        {
          "internalType": "uint256",
          "name": "_oneYear",
          "type": "uint256"
        }
      ],
      "name": "setRewardParameters",
      "outputs": [],
      "stateMutability": "nonpayable",
      "type": "function"
    },
    {
      "inputs": [
        {
          "internalType": "uint256",
          "name": "_amount",
          "type": "uint256"
        }
      ],
      "name": "setMinimumStakingAmount",
      "outputs": [],
      "stateMutability": "nonpayable",
      "type": "function"
    },
    {
      "inputs": [
        {
          "internalType": "bytes32",
          "name": "stakeId",
          "type": "bytes32"
        }
      ],
      "name": "getStakeInformation",
      "outputs": [
        {
          "internalType": "address",
          "name": "staker",
          "type": "address"
        },
        {
          "internalType": "uint256",
          "name": "amount",
          "type": "uint256"
        },
        {
          "internalType": "uint256",
          "name": "stakingPeriod",
          "type": "uint256"
        },
        {
          "internalType": "uint256",
          "name": "endsAt",
          "type": "uint256"
        },
        {
          "internalType": "uint256",
          "name": "dailyReward",
          "type": "uint256"
        },
        {
          "internalType": "uint256",
          "name": "remainingDailyRewards",
          "type": "uint256"
        },
        {
          "internalType": "uint256",
          "name": "lastRewardClaimTime",
          "type": "uint256"
        }
      ],
      "stateMutability": "view",
      "type": "function",
      "constant": true
    },
    {
      "inputs": [
        {
          "internalType": "bytes32",
          "name": "stakeId",
          "type": "bytes32"
        }
      ],
      "name": "isStake",
      "outputs": [
        {
          "internalType": "bool",
          "name": "",
          "type": "bool"
        }
      ],
      "stateMutability": "view",
      "type": "function",
      "constant": true
    },
    {
      "inputs": [
        {
          "internalType": "bytes32",
          "name": "stakeId",
          "type": "bytes32"
        }
      ],
      "name": "isStillStaked",
      "outputs": [
        {
          "internalType": "bool",
          "name": "",
          "type": "bool"
        }
      ],
      "stateMutability": "view",
      "type": "function",
      "constant": true
    },
    {
      "inputs": [
        {
          "internalType": "bytes32",
          "name": "stakeId",
          "type": "bytes32"
        }
      ],
      "name": "unstake",
      "outputs": [],
      "stateMutability": "nonpayable",
      "type": "function"
    },
    {
      "inputs": [
        {
          "internalType": "bytes32",
          "name": "stakeId",
          "type": "bytes32"
        }
      ],
      "name": "claimRewards",
      "outputs": [],
      "stateMutability": "nonpayable",
      "type": "function"
    },
    {
      "inputs": [
        {
          "internalType": "uint256",
          "name": "amount",
          "type": "uint256"
        },
        {
          "internalType": "uint256",
          "name": "_time",
          "type": "uint256"
        }
      ],
      "name": "stake",
      "outputs": [],
      "stateMutability": "nonpayable",
      "type": "function"
    }
  ],
  "bytecode": "0x60806040523480156200001157600080fd5b506040516200196e3803806200196e8339810160408190526200003491620000cf565b62000048620000426200007b565b6200007f565b600b805460ff60a01b19169055600980546001600160a01b0319166001600160a01b0392909216919091179055620000ff565b3390565b600080546001600160a01b038381166001600160a01b0319831681178455604051919092169283917f8be0079c531659141344cd1fd0a4f28419497f9722a3daafe3b4186f6b6457e09190a35050565b600060208284031215620000e1578081fd5b81516001600160a01b0381168114620000f8578182fd5b9392505050565b61185f806200010f6000396000f3fe608060405234801561001057600080fd5b506004361061018e5760003560e01c80637790ddc6116100de5780639b071e2911610097578063b1327a1711610071578063b1327a1714610332578063b5d5b5fa1461033a578063f2fde38b1461034d578063fc0c546a146103605761018e565b80639b071e2914610304578063a198043014610317578063b0d2d0111461032a5761018e565b80637790ddc6146102b35780637b0472f0146102c6578063817b1cd2146102d95780638380f93d146102e15780638da5cb5b146102e95780638fee6407146102f15761018e565b806332194ab31161014b5780635f5f8efe116101255780635f5f8efe14610272578063715018a61461028557806371ed5d1a1461028d578063727e9d10146102a05761018e565b806332194ab31461022a5780634543754f1461023d5780635b35f9c91461025d5761018e565b8063040ac95e14610193578063091c76f5146101a8578063158ef93e146101c9578063189e4050146101de5780632c66d3d5146102045780632fc6bd8714610217575b600080fd5b6101a66101a13660046111c9565b610368565b005b6101b06103d2565b6040516101c09493929190611758565b60405180910390f35b6101d16103e1565b6040516101c091906113a6565b6101f16101ec366004611233565b6103f1565b6040516101c0979695949392919061136b565b6101d1610212366004611233565b61046d565b6101a6610225366004611233565b610487565b6101a6610238366004611233565b6104eb565b61025061024b3660046111c9565b61055e565b6040516101c091906113b1565b610265610570565b6040516101c09190611319565b6101a6610280366004611284565b61057f565b6101a6610616565b6101a661029b366004611233565b610661565b6101a66102ae3660046112b5565b61089d565b6101a66102c1366004611233565b610967565b6101a66102d4366004611263565b610ba4565b610250610d51565b610250610d57565b610265610d5d565b6101f16102ff366004611233565b610d6c565b6101d1610312366004611233565b610db3565b6101a66103253660046111c9565b610dd0565b610250610e31565b610265610e37565b6102506103483660046111ea565b610e46565b6101a661035b3660046111c9565b610e77565b610265610ee8565b610370610ef7565b6001600160a01b0316610381610d5d565b6001600160a01b0316146103b05760405162461bcd60e51b81526004016103a790611600565b60405180910390fd5b600b80546001600160a01b0319166001600160a01b0392909216919091179055565b60015460025460035460045484565b600b54600160a01b900460ff1681565b6000908152600f6020908152604091829020825160e08101845281546001600160a01b031680825260018301549382018490526002830154948201859052600383015460608301819052600484015460808401819052600585015460a0850181905260069095015460c090940184905291969495949093919290565b6000818152600f602052604090206003015415155b919050565b61048f610ef7565b6001600160a01b03166104a0610d5d565b6001600160a01b0316146104c65760405162461bcd60e51b81526004016103a790611600565b600081116104e65760405162461bcd60e51b81526004016103a790611635565b600c55565b6104f3610ef7565b6001600160a01b0316610504610d5d565b6001600160a01b03161461052a5760405162461bcd60e51b81526004016103a790611600565b600581905561053a8160036117ab565b600690815561054a9082906117ab565b60075561055881600c6117ab565b60085550565b60106020526000908152604090205481565b600a546001600160a01b031681565b610587610ef7565b6001600160a01b0316610598610d5d565b6001600160a01b0316146105be5760405162461bcd60e51b81526004016103a790611600565b6000841180156105ce5750600083115b80156105da5750600082115b80156105e65750600081115b6106025760405162461bcd60e51b81526004016103a7906113de565b600193909355600291909155600355600455565b61061e610ef7565b6001600160a01b031661062f610d5d565b6001600160a01b0316146106555760405162461bcd60e51b81526004016103a790611600565b61065f6000610efb565b565b6000818152600f6020908152604091829020825160e08101845281546001600160a01b0316815260018201549281019290925260028101549282019290925260038201546060820181905260048301546080830152600583015460a083015260069092015460c0820152906106e85760405162461bcd60e51b81526004016103a7906116bc565b80516001600160a01b03166106fb610ef7565b6001600160a01b0316146107215760405162461bcd60e51b81526004016103a790611415565b42816060015111156107455760405162461bcd60e51b81526004016103a7906114c2565b60a0810151156107585761075882610967565b6000828152600f602090815260408220600381018390556001810183905560028101839055600501829055820151600e8054919290916107999084906117ca565b90915550503360009081526010602052604081208054916107b9836117e1565b919050555080600001516001600160a01b03167f2774090e627869eaafcd1e79e291786f7d2bcc2f62467b75effa5739ac1df9148383602001516040516108019291906113ba565b60405180910390a2600954600b54825160208401516040516323b872dd60e01b81526001600160a01b03948516946323b872dd94610846949116929091600401611347565b602060405180830381600087803b15801561086057600080fd5b505af1158015610874573d6000803e3d6000fd5b505050506040513d601f19601f820116820180604052508101906108989190611213565b505050565b6108a5610ef7565b6001600160a01b03166108b6610d5d565b6001600160a01b0316146108dc5760405162461bcd60e51b81526004016103a790611600565b600b54600160a01b900460ff16156109065760405162461bcd60e51b81526004016103a79061148b565b61090f86610487565b61091b8585858561057f565b600b805460ff60a01b1916600160a01b179055600581905561093e8160036117ab565b600690815561094e9082906117ab565b60075561095c81600c6117ab565b600855505050505050565b6000818152600f6020908152604091829020825160e08101845281546001600160a01b0316815260018201549281019290925260028101549282019290925260038201546060820181905260048301546080830152600583015460a083015260069092015460c0820152906109ee5760405162461bcd60e51b81526004016103a7906116bc565b80516001600160a01b0316610a01610ef7565b6001600160a01b031614610a275760405162461bcd60e51b81526004016103a7906116e6565b60008160a0015111610a4b5760405162461bcd60e51b81526004016103a7906114f9565b6000601e600554610a5c919061178b565b60c0830151610a6b90426117ca565b610a75919061178b565b9050808260a001511015610a8a575060a08101515b60008111610aaa5760405162461bcd60e51b81526004016103a790611714565b600954600a54835160808501516001600160a01b03938416936323b872dd93169190610ad690866117ab565b6040518463ffffffff1660e01b8152600401610af493929190611347565b602060405180830381600087803b158015610b0e57600080fd5b505af1158015610b22573d6000803e3d6000fd5b505050506040513d601f19601f82011682018060405250810190610b469190611213565b50601e600554610b56919061178b565b610b6090826117ab565b8260c00151610b6f9190611773565b6000848152600f60205260408120600681019290925560059091018054839290610b9a9084906117ca565b9091555050505050565b600554811480610bb5575060065481145b80610bc1575060075481145b80610bcd575060085481145b610be95760405162461bcd60e51b81526004016103a790611556565b600c54821015610c0b5760405162461bcd60e51b81526004016103a7906115a3565b600954604051636eb1769f60e11b815283916001600160a01b03169063dd62ed3e90610c3d903390309060040161132d565b60206040518083038186803b158015610c5557600080fd5b505afa158015610c69573d6000803e3d6000fd5b505050506040513d601f19601f82011682018060405250810190610c8d919061124b565b1015610cab5760405162461bcd60e51b81526004016103a790611685565b600954600b546040516323b872dd60e01b81526001600160a01b03928316926323b872dd92610ce4923392909116908790600401611347565b602060405180830381600087803b158015610cfe57600080fd5b505af1158015610d12573d6000803e3d6000fd5b505050506040513d601f19601f82011682018060405250810190610d369190611213565b506000610d433342610f4b565b905061089881338585610f81565b600d5481565b600e5481565b6000546001600160a01b031690565b600f6020526000908152604090208054600182015460028301546003840154600485015460058601546006909601546001600160a01b039095169593949293919290919087565b6000908152600f60205260409020546001600160a01b0316151590565b610dd8610ef7565b6001600160a01b0316610de9610d5d565b6001600160a01b031614610e0f5760405162461bcd60e51b81526004016103a790611600565b600a80546001600160a01b0319166001600160a01b0392909216919091179055565b600c5481565b600b546001600160a01b031681565b60116020528160005260406000208181548110610e6257600080fd5b90600052602060002001600091509150505481565b610e7f610ef7565b6001600160a01b0316610e90610d5d565b6001600160a01b031614610eb65760405162461bcd60e51b81526004016103a790611600565b6001600160a01b038116610edc5760405162461bcd60e51b81526004016103a790611445565b610ee581610efb565b50565b6009546001600160a01b031681565b3390565b600080546001600160a01b038381166001600160a01b0319831681178455604051919092169283917f8be0079c531659141344cd1fd0a4f28419497f9722a3daafe3b4186f6b6457e09190a35050565b6000808383604051602001610f619291906112f7565b60408051808303601f190181529190528051602090910120949350505050565b6000610f8d8242611773565b90506000600554831415610fc957600154601e90606490610fae90876117ab565b610fb8919061178b565b610fc2919061178b565b9050611038565b600654831415610fe657600254605a90606490610fae90876117ab565b6007548314156110035760035460b490606490610fae90876117ab565b600854831415611038576004546101689060649061102190876117ab565b61102b919061178b565b611035919061178b565b90505b6040518060e00160405280866001600160a01b0316815260200185815260200184815260200183815260200182815260200160055485611078919061178b565b61108390601e6117ab565b8152426020918201526000888152600f82526040808220845181546001600160a01b0319166001600160a01b0391821617825585850151600180840191909155868401516002840155606087015160038401556080870151600484015560a0870151600584015560c0909601516006909201919091558916808352601184528183208054958601815583528383209094018a9055928152601090915290812080549161112e836117f8565b919050555083600d60008282546111459190611773565b9250508190555083600e600082825461115e9190611773565b92505081905550846001600160a01b03167fa98fe7d2204baa1060672de0612aecc1197e5cd1fc4bb5e6f5f4b8c357052e8e8786856040516111a2939291906113c8565b60405180910390a2505050505050565b80356001600160a01b038116811461048257600080fd5b6000602082840312156111da578081fd5b6111e3826111b2565b9392505050565b600080604083850312156111fc578081fd5b611205836111b2565b946020939093013593505050565b600060208284031215611224578081fd5b815180151581146111e3578182fd5b600060208284031215611244578081fd5b5035919050565b60006020828403121561125c578081fd5b5051919050565b60008060408385031215611275578182fd5b50508035926020909101359150565b60008060008060808587031215611299578182fd5b5050823594602084013594506040840135936060013592509050565b60008060008060008060c087890312156112cd578182fd5b505084359660208601359650604086013595606081013595506080810135945060a0013592509050565b60609290921b6bffffffffffffffffffffffff19168252601482015260340190565b6001600160a01b0391909116815260200190565b6001600160a01b0392831681529116602082015260400190565b6001600160a01b039384168152919092166020820152604081019190915260600190565b6001600160a01b03979097168752602087019590955260408601939093526060850191909152608084015260a083015260c082015260e00190565b901515815260200190565b90815260200190565b918252602082015260400190565b9283526020830191909152604082015260600190565b6020808252601a908201527f4f6e65206f66207468652052657761726473206973207a65726f000000000000604082015260600190565b6020808252601690820152754f6e6c79206f776e65722063616e20756e7374616b6560501b604082015260600190565b60208082526026908201527f4f776e61626c653a206e6577206f776e657220697320746865207a65726f206160408201526564647265737360d01b606082015260800190565b6020808252601c908201527f436f6e747261637420696e697469616c697a656420616c726561647900000000604082015260600190565b6020808252601e908201527f43616e6e6f7420756e7374616b65206265666f7265206d617475726974790000604082015260600190565b6020808252603c908201527f596f75206861766520616c726561647920636c61696d656420616c6c2074686560408201527f206461696c79207265776172647320696e2074686973207374616b6500000000606082015260800190565b6020808252602d908201527f5374616b696e672054696d652073686f756c6420626520696e2074696d65206c60408201526c1a5b5a5d1cc81919599a5b9959609a1b606082015260800190565b6020808252603f908201527f5374616b696e67206d7573742062652067726561746572207468656e206f722060408201527f657175616c20746f204d696e696d756d205374616b696e6720416d6f756e7400606082015260800190565b6020808252818101527f4f776e61626c653a2063616c6c6572206973206e6f7420746865206f776e6572604082015260600190565b60208082526030908201527f416d6f756e742063616e6e6f74206265207a65726f2c20706c6561736520696e60408201526f1c1d5d081d985b1a5908185b5bdd5b9d60821b606082015260800190565b6020808252601b908201527f5374616b696e6720616d6f756e74206e6f7420617070726f7665640000000000604082015260600190565b60208082526010908201526f105b1c9958591e481d5b9cdd185ad95960821b604082015260600190565b6020808252601490820152734f6e6c79206f776e65722063616e20636c61696d60601b604082015260600190565b60208082526024908201527f57616974206174206c6561737420312064617920746f20636c61696d207265776040820152636172647360e01b606082015260800190565b93845260208401929092526040830152606082015260800190565b6000821982111561178657611786611813565b500190565b6000826117a657634e487b7160e01b81526012600452602481fd5b500490565b60008160001904831182151516156117c5576117c5611813565b500290565b6000828210156117dc576117dc611813565b500390565b6000816117f0576117f0611813565b506000190190565b600060001982141561180c5761180c611813565b5060010190565b634e487b7160e01b600052601160045260246000fdfea2646970667358221220c70c31171cf83b272513594d97118e36218549b360896bd2f6b59f681b93767964736f6c63430008000033",
  "immutableReferences": {},
  "source": "// SPDX license identifier: UNLICENSED\r\npragma solidity ^0.8.0;\r\n\r\n/**\r\n * @dev Interface of the ERC20 standard as defined in the EIP.\r\n */\r\ninterface IERC20 {\r\n    /**\r\n     * @dev Returns the amount of tokens in existence.\r\n     */\r\n    function totalSupply() external view returns (uint256);\r\n\r\n    /**\r\n     * @dev Returns the amount of tokens owned by `account`.\r\n     */\r\n    function balanceOf(address account) external view returns (uint256);\r\n\r\n    /**\r\n     * @dev Moves `amount` tokens from the caller's account to `to`.\r\n     *\r\n     * Returns a boolean value indicating whether the operation succeeded.\r\n     *\r\n     * Emits a {Transfer} event.\r\n     */\r\n    function transfer(address to, uint256 amount) external returns (bool);\r\n\r\n    /**\r\n     * @dev Returns the remaining number of tokens that `spender` will be\r\n     * allowed to spend on behalf of `owner` through {transferFrom}. This is\r\n     * zero by default.\r\n     *\r\n     * This value changes when {approve} or {transferFrom} are called.\r\n     */\r\n    function allowance(address owner, address spender) external view returns (uint256);\r\n\r\n    /**\r\n     * @dev Sets `amount` as the allowance of `spender` over the caller's tokens.\r\n     *\r\n     * Returns a boolean value indicating whether the operation succeeded.\r\n     *\r\n     * IMPORTANT: Beware that changing an allowance with this method brings the risk\r\n     * that someone may use both the old and the new allowance by unfortunate\r\n     * transaction ordering. One possible solution to mitigate this race\r\n     * condition is to first reduce the spender's allowance to 0 and set the\r\n     * desired value afterwards:\r\n     * https://github.com/ethereum/EIPs/issues/20#issuecomment-263524729\r\n     *\r\n     * Emits an {Approval} event.\r\n     */\r\n    function approve(address spender, uint256 amount) external returns (bool);\r\n\r\n    /**\r\n     * @dev Moves `amount` tokens from `from` to `to` using the\r\n     * allowance mechanism. `amount` is then deducted from the caller's\r\n     * allowance.\r\n     *\r\n     * Returns a boolean value indicating whether the operation succeeded.\r\n     *\r\n     * Emits a {Transfer} event.\r\n     */\r\n    function transferFrom(\r\n        address from,\r\n        address to,\r\n        uint256 amount\r\n    ) external returns (bool);\r\n\r\n    /**\r\n     * @dev Emitted when `value` tokens are moved from one account (`from`) to\r\n     * another (`to`).\r\n     *\r\n     * Note that `value` may be zero.\r\n     */\r\n    event Transfer(address indexed from, address indexed to, uint256 value);\r\n\r\n    /**\r\n     * @dev Emitted when the allowance of a `spender` for an `owner` is set by\r\n     * a call to {approve}. `value` is the new allowance.\r\n     */\r\n    event Approval(address indexed owner, address indexed spender, uint256 value);\r\n}\r\n\r\n// File: @openzeppelin/contracts/utils/Context.sol\r\n\r\n\r\n// OpenZeppelin Contracts v4.4.1 (utils/Context.sol)\r\n\r\npragma solidity ^0.8.0;\r\n\r\n/**\r\n * @dev Provides information about the current execution context, including the\r\n * sender of the transaction and its data. While these are generally available\r\n * via msg.sender and msg.data, they should not be accessed in such a direct\r\n * manner, since when dealing with meta-transactions the account sending and\r\n * paying for execution may not be the actual sender (as far as an application\r\n * is concerned).\r\n *\r\n * This contract is only required for intermediate, library-like contracts.\r\n */\r\nabstract contract Context {\r\n    function _msgSender() internal view virtual returns (address) {\r\n        return msg.sender;\r\n    }\r\n\r\n    function _msgData() internal view virtual returns (bytes calldata) {\r\n        return msg.data;\r\n    }\r\n}\r\n\r\n// File: @openzeppelin/contracts/access/Ownable.sol\r\n\r\n\r\n// OpenZeppelin Contracts v4.4.1 (access/Ownable.sol)\r\n\r\npragma solidity ^0.8.0;\r\n\r\n\r\n/**\r\n * @dev Contract module which provides a basic access control mechanism, where\r\n * there is an account (an owner) that can be granted exclusive access to\r\n * specific functions.\r\n *\r\n * By default, the owner account will be the one that deploys the contract. This\r\n * can later be changed with {transferOwnership}.\r\n *\r\n * This module is used through inheritance. It will make available the modifier\r\n * `onlyOwner`, which can be applied to your functions to restrict their use to\r\n * the owner.\r\n */\r\nabstract contract Ownable is Context {\r\n    address private _owner;\r\n\r\n    event OwnershipTransferred(address indexed previousOwner, address indexed newOwner);\r\n\r\n    /**\r\n     * @dev Initializes the contract setting the deployer as the initial owner.\r\n     */\r\n    constructor() {\r\n        _transferOwnership(_msgSender());\r\n    }\r\n\r\n    /**\r\n     * @dev Returns the address of the current owner.\r\n     */\r\n    function owner() public view virtual returns (address) {\r\n        return _owner;\r\n    }\r\n\r\n    /**\r\n     * @dev Throws if called by any account other than the owner.\r\n     */\r\n    modifier onlyOwner() {\r\n        require(owner() == _msgSender(), \"Ownable: caller is not the owner\");\r\n        _;\r\n    }\r\n\r\n    /**\r\n     * @dev Leaves the contract without owner. It will not be possible to call\r\n     * `onlyOwner` functions anymore. Can only be called by the current owner.\r\n     *\r\n     * NOTE: Renouncing ownership will leave the contract without an owner,\r\n     * thereby removing any functionality that is only available to the owner.\r\n     */\r\n    function renounceOwnership() public virtual onlyOwner {\r\n        _transferOwnership(address(0));\r\n    }\r\n\r\n    /**\r\n     * @dev Transfers ownership of the contract to a new account (`newOwner`).\r\n     * Can only be called by the current owner.\r\n     */\r\n    function transferOwnership(address newOwner) public virtual onlyOwner {\r\n        require(newOwner != address(0), \"Ownable: new owner is the zero address\");\r\n        _transferOwnership(newOwner);\r\n    }\r\n\r\n    /**\r\n     * @dev Transfers ownership of the contract to a new account (`newOwner`).\r\n     * Internal function without access restriction.\r\n     */\r\n    function _transferOwnership(address newOwner) internal virtual {\r\n        address oldOwner = _owner;\r\n        _owner = newOwner;\r\n        emit OwnershipTransferred(oldOwner, newOwner);\r\n    }\r\n}\r\n\r\n// File: RockStake.sol\r\n\r\n\r\npragma solidity ^0.8.0;\r\n\r\n\r\n\r\ncontract StakeToken is Ownable {\r\n    struct Stake {\r\n        address owner;\r\n        uint256 amount;\r\n        uint256 time;\r\n        uint256 endsAt;\r\n        uint256 dailyReward;\r\n        uint256 daysToReward;\r\n        uint256 lastRewardClaimAt;\r\n    }\r\n\r\n    struct Reward {\r\n        uint256 oneMonth;\r\n        uint256 threeMonth;\r\n        uint256 sixMonth;\r\n        uint256 oneYear;\r\n    }\r\n    Reward public tokenRewards;\r\n\r\n    // Time durations multiply by seconds\r\n    uint256 oneMonth;\r\n    uint256 threeMonths;\r\n    uint256 sixMonths;\r\n    uint256 oneYear;\r\n\r\n    // State level variables for the contract\r\n    IERC20 public token;\r\n    address public rewardsWallet;\r\n    address public stakesWallet;\r\n    bool public initialized;\r\n    uint256 public minimumStakingAmount;\r\n    uint256 public totalStaked;\r\n    uint256 public currentlyStaked;\r\n\r\n    // Stakes by the user indexed by address\r\n    mapping(bytes32 => Stake) public stakes;\r\n    mapping(address => uint256) public totalUserStakes;\r\n    mapping(address => bytes32[]) public userStakes;\r\n\r\n    event Staked(\r\n        address indexed staker,\r\n        bytes32 stakeId,\r\n        uint256 amount,\r\n        uint256 endsAt\r\n    );\r\n\r\n    event Unstaked(address indexed staker, bytes32 stakeId, uint256 amount);\r\n\r\n    constructor(IERC20 _token) {\r\n        initialized = false;\r\n        token = _token;\r\n    }\r\n\r\n    function setRewardsWallet(address newWallet) public onlyOwner {\r\n        rewardsWallet = newWallet;\r\n    }\r\n\r\n    function setStakesWallet(address newWallet) public onlyOwner {\r\n        stakesWallet = newWallet;\r\n    }\r\n\r\n    /**\r\n     * Set up the staking smart contract\r\n     *\r\n     * @param _amount Initial amount how many tokens are staked at once\r\n     * @param _oneMonth initial One Month staking Reward\r\n     * @param _threeMonth initial three Months staking Reward\r\n     * @param _sixMonth initial six Months staking Reward\r\n     * @param _oneYear initial One Year staking Reward\r\n     */\r\n    function initializeStakingContract(\r\n        uint256 _amount,\r\n        uint256 _oneMonth,\r\n        uint256 _threeMonth,\r\n        uint256 _sixMonth,\r\n        uint256 _oneYear,\r\n        uint256 _oneMonthTime\r\n    ) external onlyOwner {\r\n        require(initialized == false, \"Contract initialized already\");\r\n        setMinimumStakingAmount(_amount);\r\n        setRewardParameters(_oneMonth, _threeMonth, _sixMonth, _oneYear);\r\n        initialized = true;\r\n\r\n        oneMonth = _oneMonthTime;\r\n        threeMonths = _oneMonthTime * 3;\r\n        sixMonths = _oneMonthTime * 6;\r\n        oneYear = _oneMonthTime * 12;\r\n    }\r\n\r\n    function changeTimeLimits(uint256 _oneMonth) public onlyOwner {\r\n        oneMonth = _oneMonth;\r\n        threeMonths = _oneMonth * 3;\r\n        sixMonths = _oneMonth * 6;\r\n        oneYear = _oneMonth * 12;\r\n    }\r\n\r\n    function setRewardParameters(\r\n        uint256 _oneMonth,\r\n        uint256 _threeMonth,\r\n        uint256 _sixMonth,\r\n        uint256 _oneYear\r\n    ) public onlyOwner {\r\n        require(\r\n            _oneMonth > 0 && _threeMonth > 0 && _sixMonth > 0 && _oneYear > 0,\r\n            \"One of the Rewards is zero\"\r\n        );\r\n        tokenRewards.oneMonth = _oneMonth;\r\n        tokenRewards.threeMonth = _threeMonth;\r\n        tokenRewards.sixMonth = _sixMonth;\r\n        tokenRewards.oneYear = _oneYear;\r\n    }\r\n\r\n    /**\r\n     * owner can adjust required stake amount and duration.\r\n     */\r\n    function setMinimumStakingAmount(uint256 _amount) public onlyOwner {\r\n        require(_amount > 0, \"Amount cannot be zero, please input valid amount\");\r\n        minimumStakingAmount = _amount;\r\n    }\r\n\r\n    /**\r\n     * Stake tokens sent on the contract.\r\n     *\r\n     * @param stakeId bytes32 Id generated from amount and address of staker\r\n     * @param staker On whose behalf we are staking\r\n     * @param amount Amount of tokens to stake\r\n     */\r\n    function _stakeInternal(\r\n        bytes32 stakeId,\r\n        address staker,\r\n        uint256 amount,\r\n        uint256 _stakingTime\r\n    ) internal {\r\n        uint256 endsAt = block.timestamp + _stakingTime;\r\n\r\n        uint256 dailyReward = 0;\r\n        if (_stakingTime == oneMonth) {\r\n            dailyReward = amount * tokenRewards.oneMonth / 100 / (30 * 1);\r\n        } else if (_stakingTime == threeMonths) {\r\n            dailyReward = amount * tokenRewards.threeMonth / 100 / (30 * 3);\r\n        } else if (_stakingTime == sixMonths) {\r\n            dailyReward = amount * tokenRewards.sixMonth / 100 / (30 * 6);\r\n        } else if (_stakingTime == oneYear) {\r\n            dailyReward = amount * tokenRewards.oneYear / 100 / (30 * 12);\r\n        }\r\n\r\n        stakes[stakeId] = Stake(\r\n            staker,\r\n            amount,\r\n            _stakingTime,\r\n            endsAt,\r\n            dailyReward,\r\n            _stakingTime / oneMonth * 30,\r\n            block.timestamp\r\n        );\r\n        userStakes[staker].push(stakeId);\r\n        totalUserStakes[staker]++;\r\n        totalStaked += amount;\r\n        currentlyStaked += amount;\r\n\r\n        emit Staked(staker, stakeId, amount, endsAt);\r\n    }\r\n\r\n    /**\r\n     * Return data for a single stake.\r\n     */\r\n    function getStakeInformation(bytes32 stakeId)\r\n        public\r\n        view\r\n        returns (\r\n            address staker,\r\n            uint256 amount,\r\n            uint256 stakingPeriod,\r\n            uint256 endsAt,\r\n            uint256 dailyReward,\r\n            uint256 remainingDailyRewards,\r\n            uint256 lastRewardClaimTime\r\n        )\r\n    {\r\n        Stake memory s = stakes[stakeId];\r\n        return (s.owner, s.amount, s.time, s.endsAt, s.dailyReward, s.daysToReward, s.lastRewardClaimAt);\r\n    }\r\n\r\n    /**\r\n     * Check if a stakeId has been allocated\r\n     */\r\n    function isStake(bytes32 stakeId) public view returns (bool) {\r\n        return stakes[stakeId].owner != address(0x0);\r\n    }\r\n\r\n    /**\r\n     * Return true if the user has still tokens in the staking contract for a previous stake.\r\n     */\r\n    function isStillStaked(bytes32 stakeId) public view returns (bool) {\r\n        return stakes[stakeId].endsAt != 0;\r\n    }\r\n\r\n    /**\r\n     * Send tokens back to the staker.\r\n     *@param stakeId bytes32 Id of Stake recieved on staking\r\n     */\r\n    function unstake(bytes32 stakeId) public {\r\n        Stake memory s = stakes[stakeId];\r\n\r\n        require(s.endsAt != 0, \"Already unstaked\");\r\n        require(_msgSender() == s.owner, \"Only owner can unstake\");\r\n        require(s.endsAt <= block.timestamp, \"Cannot unstake before maturity\");\r\n\r\n        if (s.daysToReward > 0) {\r\n            claimRewards(stakeId);\r\n        }\r\n\r\n        // Mark the stake released\r\n        stakes[stakeId].endsAt = 0;\r\n        stakes[stakeId].amount = 0;\r\n        stakes[stakeId].time = 0;\r\n        stakes[stakeId].daysToReward = 0;\r\n        currentlyStaked -= s.amount;\r\n        totalUserStakes[msg.sender]--;\r\n\r\n        emit Unstaked(s.owner, stakeId, s.amount);\r\n\r\n        // Use ERC-20 to transfer tokens to the wallet of the owner\r\n        token.transferFrom(stakesWallet, s.owner, s.amount);\r\n    }\r\n\r\n    /**\r\n     * Allow staker to cash out their daily rewards\r\n     *@param stakeId bytes32 Id of Stake recieved on staking\r\n     */\r\n    function claimRewards(bytes32 stakeId) public {\r\n        Stake memory s = stakes[stakeId];\r\n\r\n        require(s.endsAt != 0, \"Already unstaked\");\r\n        require(_msgSender() == s.owner, \"Only owner can claim\");\r\n        require(s.daysToReward > 0, \"You have already claimed all the daily rewards in this stake\");\r\n\r\n        uint256 daysUnclaimed = (block.timestamp - s.lastRewardClaimAt) /\r\n            (oneMonth / 30);\r\n\r\n        if (s.daysToReward < daysUnclaimed) {\r\n            daysUnclaimed = s.daysToReward;\r\n        }\r\n\r\n        require(daysUnclaimed > 0, \"Wait at least 1 day to claim rewards\");\r\n\r\n        // Use ERC-20 to transfer reward tokens to the wallet of the owner\r\n        token.transferFrom(rewardsWallet, s.owner, daysUnclaimed * s.dailyReward);\r\n        stakes[stakeId].lastRewardClaimAt = s.lastRewardClaimAt + daysUnclaimed * (oneMonth / 30);\r\n        stakes[stakeId].daysToReward -= daysUnclaimed;\r\n    }\r\n\r\n    function _keyGen(address sender, uint256 amount)\r\n        internal\r\n        pure\r\n        returns (bytes32)\r\n    {\r\n        bytes32 uid = keccak256(abi.encodePacked(sender, amount));\r\n        return uid;\r\n    }\r\n\r\n    function stake(uint256 amount, uint256 _time) public {\r\n        require(\r\n            _time == oneMonth ||\r\n                _time == threeMonths ||\r\n                _time == sixMonths ||\r\n                _time == oneYear,\r\n            \"Staking Time should be in time limits defined\"\r\n        );\r\n        require(\r\n            amount >= minimumStakingAmount,\r\n            \"Staking must be greater then or equal to Minimum Staking Amount\"\r\n        );\r\n        require(\r\n            token.allowance(msg.sender, address(this)) >= amount,\r\n            \"Staking amount not approved\"\r\n        );\r\n\r\n        token.transferFrom(msg.sender, stakesWallet, amount);\r\n        bytes32 stakeId = _keyGen(msg.sender, block.timestamp);\r\n        _stakeInternal(stakeId, msg.sender, amount, _time);\r\n    }\r\n}",
  "sourcePath": "C:\\projects\\bedrock-staking\\contracts\\StakeToken.sol",
  "compiler": {
    "name": "solc",
    "version": "0.8.0+commit.c7dfd78e.Emscripten.clang"
  },
  "schemaVersion": "3.4.7",
  "updatedAt": "2022-08-16T05:19:32.832Z",
  "networkType": "ethereum",
  "devdoc": {
    "kind": "dev",
    "methods": {
      "claimRewards(bytes32)": {
        "params": {
          "stakeId": "bytes32 Id of Stake recieved on staking"
        }
      },
      "initializeStakingContract(uint256,uint256,uint256,uint256,uint256,uint256)": {
        "params": {
          "_amount": "Initial amount how many tokens are staked at once",
          "_oneMonth": "initial One Month staking Reward",
          "_oneYear": "initial One Year staking Reward",
          "_sixMonth": "initial six Months staking Reward",
          "_threeMonth": "initial three Months staking Reward"
        }
      },
      "owner()": {
        "details": "Returns the address of the current owner."
      },
      "renounceOwnership()": {
        "details": "Leaves the contract without owner. It will not be possible to call `onlyOwner` functions anymore. Can only be called by the current owner. NOTE: Renouncing ownership will leave the contract without an owner, thereby removing any functionality that is only available to the owner."
      },
      "transferOwnership(address)": {
        "details": "Transfers ownership of the contract to a new account (`newOwner`). Can only be called by the current owner."
      },
      "unstake(bytes32)": {
        "params": {
          "stakeId": "bytes32 Id of Stake recieved on staking"
        }
      }
    },
    "version": 1
  },
  "userdoc": {
    "kind": "user",
    "methods": {
      "claimRewards(bytes32)": {
        "notice": "Allow staker to cash out their daily rewards"
      },
      "getStakeInformation(bytes32)": {
        "notice": "Return data for a single stake."
      },
      "initializeStakingContract(uint256,uint256,uint256,uint256,uint256,uint256)": {
        "notice": "Set up the staking smart contract"
      },
      "isStake(bytes32)": {
        "notice": "Check if a stakeId has been allocated"
      },
      "isStillStaked(bytes32)": {
        "notice": "Return true if the user has still tokens in the staking contract for a previous stake."
      },
      "setMinimumStakingAmount(uint256)": {
        "notice": "owner can adjust required stake amount and duration."
      },
      "unstake(bytes32)": {
        "notice": "Send tokens back to the staker."
      }
    },
    "version": 1
  }
}